:100000000C9459000C9481000C9481000C94810094
:100010000C9481000C9481000C9481000C9481005C
:100020000C9481000C9481000C9481000C9481004C
:100030000C9481000C9481000C9481000C9481003C
:100040000C9401040C9481000C9475060C94A70682
:100050000C9481000C9481000C9481000C9481001C
:100060000C94D4020C9481000000000800020100EE
:100070000003040700000000000000000102040863
:100080001020408001020408102001020408102002
:10009000040404040404040402020202020203032E
:1000A0000303030300000000250028002B00EA01E1
:1000B000D70611241FBECFEFD8E0DEBFCDBF11E0C1
:1000C000A0E0B1E0E8E2F0E102C005900D92A233B9
:1000D000B107D9F722E0A2E3B1E001C01D92A9392E
:1000E000B207E1F710E0C2EBD0E004C02297FE01B6
:1000F0000E940E08CE3AD107C9F70E94DA070C9485
:1001000012080C94000026E040E855E260E070E040
:100110008CEF91E00E94130683E391E00C945A0166
:1001200060E270E083E391E00E946E01E0913301B0
:10013000F09134010190F081E02D63E183E391E0DF
:10014000099583E391E00E94E70141E050E060E21D
:1001500070E083E391E00E94E40183E391E00E9478
:10016000CB0080933201882369F042E050E0682F91
:100170008CEF91E00E94C20768EC70E080E090E0B4
:100180000C946E0408958091630190E020916401C5
:10019000821B9109089520916401809163012817C1
:1001A00050F4E22FF0E0EB59FE4F808190E02F5F9A
:1001B0002093640108958FEF9FEF0895E09164010B
:1001C00080916301E81730F4F0E0EB59FE4F808135
:1001D00090E008958FEF9FEF08950895CF92DF92FA
:1001E000EF92FF920F931F93CF93DF937C01CB018C
:1001F0008A0120913F01222389F0EB016B01C40E9B
:10020000D51ECC15DD0569F06991D701ED91FC9102
:100210000190F081E02DC7010995F3CF642F0E9472
:10022000AB02C801DF91CF911F910F91FF90EF902A
:10023000DF90CF900895CF93DF931F92CDB7DEB7B5
:10024000698320913F012223D1F020914001203287
:1002500040F021E030E0FC013383228380E090E035
:1002600015C080914101E82FF0E0EE5BFE4F9981CF
:1002700090838F5F809341018093400105C061E0CE
:10028000CE0101960E94AB0281E090E00F90DF91D9
:10029000CF910895FC011382128248EE53E060E092
:1002A00070E0448355836683778384E091E0918393
:1002B00080830895109264011092630110924101AD
:1002C000109240010C94EE0181E080933F01609315
:1002D0006201109241011092400108950C94640152
:1002E0000F93062F21E04091400162E471E080917C
:1002F00062010E945402109241011092400110923A
:100300003F010F9108958F929F92AF92BF92CF922B
:10031000DF92EF92FF920F931F93CF93DF93EC0145
:10032000F62ED42E48015901EE2019F10E946401E5
:100330001E2D143008F013E01150B8F0E881F98157
:1003400028E0129FB0011124A501940104C0569524
:100350004795379527956A95D2F7CA01B90101905B
:10036000F081E02DCE010995E7CF60E0CE010E943B
:1003700070014D2D413208F040E22C2D65E671E010
:100380008F2D0E940C021092640180936301DF9113
:10039000CF911F910F91FF90EF90DF90CF90BF9082
:1003A000AF909F908F900895CF92EF920F931F93ED
:1003B000C22EE12C00E010E098010E9483011F9101
:1003C0000F91EF90CF90089521E00C94D40161E05B
:1003D0000C94700183E391E00C944A011092F201B5
:1003E00081E08093F0011092EF0161E082E10E94D0
:1003F000FA0461E083E10E94FA04E9EBF0E0808115
:100400008E7F808380818D7F808388E48093B80095
:1004100085E48093BC000895413208F043C0909178
:10042000F2019111FCCF91E09093F2012093F00141
:100430002FEF209385011092CA01240F2093C90148
:100440009093F1019091F101880F892B8093F10134
:100450008091EF01813061F41092EF018091F10100
:100460008093BB008091BC0083FDF8CF85EC01C078
:1004700085EE8093BC008091F2018130E1F38091A0
:10048000CA01841710F44091CA012BEC31E0FB0142
:10049000D9018A2F821B841718F48D918193F9CF8B
:1004A000842F089580E008950F93413208F04AC0E8
:1004B0009091F2019111FCCF92E09093F2010093A0
:1004C000F0019FEF909385011092CA014093C901FA
:1004D000FB016BEC71E0DB019A2F961B941718F46B
:1004E00091919D93F9CF1092F1019091F101880FB4
:1004F000892B8093F1018091EF01813061F410929A
:10050000EF018091F1018093BB008091BC0083FDDD
:10051000F8CF85EC01C085EE8093BC00222321F04A
:100520008091F2018230E1F3809185018F3F61F08B
:1005300080918501803251F080918501803341F4B2
:1005400083E007C081E005C080E003C082E001C015
:1005500084E00F910895613298F42091F2012430E3
:1005600089F46093A701FC0189EA91E0DC012A2F5C
:10057000281B261718F421912D93F9CF80E00895B8
:1005800081E0089582E0089585ED8093BC0080911C
:10059000BC0084FDFCCF1092F201089585EC80939D
:1005A000BC001092F20108951F920F920FB60F92A5
:1005B00011242F933F934F935F936F937F938F9368
:1005C0009F93AF93BF93EF93FF938091B900887F80
:1005D000803609F49EC078F5883209F45DC090F445
:1005E000803109F456C038F4882309F4F5C0883006
:1005F00009F44FC0F5C0883109F44EC0803209F4C7
:100600005FC0EEC0803409F46AC058F4803309F446
:1006100057C0883309F0E4C0809385010E94CE0260
:10062000DFC0803509F44FC0883509F45DC08834D7
:1006300009F0D6C0D3C0883909F4C4C0A8F48837FB
:1006400009F467C038F4883609F463C0803709F4C8
:1006500060C0C6C0883809F4B5C0803909F45FC0ED
:10066000803809F0BDC05BC0803B09F483C038F41A
:10067000803A09F466C0883A09F47CC0B1C0803C75
:1006800009F4A4C0883C09F4A1C0883B09F487C0E0
:10069000A7C08091F10110C09091CA018091C90159
:1006A000981770F5E091CA0181E08E0F8093CA011E
:1006B000F0E0E553FE4F80818093BB0085EC83C062
:1006C000809385018BC0E091CA0181E08E0F8093F9
:1006D000CA018091BB00F0E0E553FE4F808390910A
:1006E000CA018091C9016BC0E091CA0181E08E0FFF
:1006F0008093CA018091BB00F0E0E553FE4F8083F8
:100700008091F00181116AC081E08093EF0184EA59
:100710005EC083E08093F20110928601CFCF80917A
:100720008601803208F04EC0E091860181E08E0F94
:10073000809386018091BB00F0E0E957FE4F8083F3
:10074000BDCF0E94CE0280918601803230F4E091CC
:100750008601F0E0E957FE4F10826091860170E05B
:10076000E091EB01F091EC0187E891E0099510929E
:10077000860136C084E08093F2011092A8011092A5
:10078000A701E091ED01F091EE0109958091A7019B
:10079000811105C081E08093A7011092A901E09129
:1007A000A80181E08E0F8093A801F0E0E755FE4F8D
:1007B00080818093BB009091A8018091A701981738
:1007C00008F47CCF85E88093BC000AC085EC809358
:1007D000BC001092F20104C0109285010E94C40274
:1007E000FF91EF91BF91AF919F918F917F916F9109
:1007F0005F914F913F912F910F900FBE0F901F90DF
:1008000018951F920F920FB60F9211242F933F93BA
:100810008F939F93AF93BF938091F4019091F501D3
:10082000A091F601B091F7013091F30123E0230F7D
:100830002D3720F40196A11DB11D05C026E8230F18
:100840000296A11DB11D2093F3018093F4019093B2
:10085000F501A093F601B093F7018091F801909112
:10086000F901A091FA01B091FB010196A11DB11D02
:100870008093F8019093F901A093FA01B093FB01E2
:10088000BF91AF919F918F913F912F910F900FBE8C
:100890000F901F9018953FB7F8948091F8019091B0
:1008A000F901A091FA01B091FB0126B5A89B05C002
:1008B0002F3F19F00196A11DB11D3FBF6627782F6C
:1008C000892F9A2F620F711D811D911D42E0660FC5
:1008D000771F881F991F4A95D1F70895CF92DF920D
:1008E000EF92FF92CF93DF936B017C010E944B0448
:1008F000EB01C114D104E104F10489F00E94E9077D
:100900000E944B046C1B7D0B683E734090F381E0AA
:10091000C81AD108E108F108C851DC4FEACFDF91CD
:10092000CF91FF90EF90DF90CF900895789484B5A9
:10093000826084BD84B5816084BD85B5826085BDDB
:1009400085B5816085BDEEE6F0E0808181608083C1
:10095000E1E8F0E0108280818260808380818160A4
:100960008083E0E8F0E0808181608083E1EBF0E06B
:10097000808184608083E0EBF0E08081816080830F
:10098000EAE7F0E0808184608083808182608083F8
:100990008081816080838081806880831092C10023
:1009A0000895833081F028F4813099F08230A1F0ED
:1009B00008958730A9F08830B9F08430D1F480915F
:1009C00080008F7D03C0809180008F7780938000AE
:1009D000089584B58F7702C084B58F7D84BD089556
:1009E0008091B0008F7703C08091B0008F7D80939D
:1009F000B00008950F931F93CF93DF931F92CDB74D
:100A0000DEB7282F30E0F901E859FF4F8491F90152
:100A1000E458FF4F1491F901E057FF4F0491002370
:100A2000C9F0882321F069830E94D1046981E02FF5
:100A3000F0E0EE0FFF1FEC55FF4FA591B4919FB76B
:100A4000F8948C91611103C01095812301C0812B12
:100A50008C939FBF0F90DF91CF911F910F910895BD
:100A6000FC01818D228D90E0805C9F4F821B91095B
:100A70008F7399270895FC01918D828D981731F01D
:100A8000828DE80FF11D858D90E008958FEF9FEF27
:100A90000895FC01918D828D981761F0828DDF01A0
:100AA000A80FB11D5D968C91928D9F5F9F73928F61
:100AB00090E008958FEF9FEF08958DEC96E0892BDD
:100AC00049F080E090E0892B29F00E94CD06811149
:100AD0000C9400000895FC01848DDF01A80FB11D66
:100AE000A35ABF4F2C91848D90E001968F73992764
:100AF000848FA689B7892C93A089B1898C91806451
:100B00008C93938D848D981306C00288F389E02D11
:100B100080818F7D80830895CF93DF93EC01888D52
:100B20008823C9F0EA89FB89808185FD05C0A889F1
:100B3000B9898C9186FD0FC00FB607FCF5CF808177
:100B400085FFF2CFA889B9898C9185FFEDCFCE01C1
:100B50000E946B05E7CFDF91CF910895CF92DF928E
:100B6000FF920F931F93CF93DF931F92CDB7DEB702
:100B70006C0181E0D60158968C9358975B969C91B6
:100B80005B975C968C915C97981307C05096ED919B
:100B9000FC915197808185FD2EC0F601038D10E0F8
:100BA0000F5F1F4F0F731127F02EF601848DF8127F
:100BB00011C00FB607FCF9CFD6015096ED91FC910C
:100BC0005197808185FFF1CFC60169830E946B0533
:100BD0006981EBCF838DE80FF11DE35AFF4F6083EE
:100BE000D6015B960C935B975296ED91FC915397CF
:100BF000808180620CC0D6015696ED91FC9157978A
:100C000060835096ED91FC91519780818064808340
:100C100081E090E00F90DF91CF911F910F91FF90B5
:100C2000DF90CF900895BF92CF92DF92EF92FF9224
:100C3000CF93DF93EC016A017B01B22EE889F98939
:100C400082E08083411581EE580761057105A1F0AE
:100C500060E079E08DE390E0A70196010E94EA0749
:100C600021503109410951095695479537952795E6
:100C7000211580E1380798F0E889F989108260E849
:100C800074E88EE190E0A70196010E94EA072150E6
:100C90003109410951095695479537952795EC85B6
:100CA000FD853083EE85FF852083188EEC89FD89D4
:100CB000B082EA89FB89808180618083EA89FB892F
:100CC000808188608083EA89FB8980818068808355
:100CD000EA89FB8980818F7D8083DF91CF91FF90AE
:100CE000EF90DF90CF90BF9008951F920F920FB6B4
:100CF0000F9211242F938F939F93EF93FF93E09183
:100D00000C02F0910D028081E0911202F091130229
:100D100082FD12C09081809115028F5F8F732091A8
:100D20001602821751F0E0911502F0E0E450FE4FF8
:100D3000958F8093150201C08081FF91EF919F9163
:100D40008F912F910F900FBE0F901F9018951F92AB
:100D50000F920FB60F9211242F933F934F935F93EF
:100D60006F937F938F939F93AF93BF93EF93FF9373
:100D70008CEF91E00E946B05FF91EF91BF91AF91D5
:100D80009F918F917F916F915F914F913F912F91A3
:100D90000F900FBE0F901F9018958CEF91E00E945E
:100DA000300521E0892B09F420E0822F089510926C
:100DB000FF011092FE0188EE93E0A0E0B0E0809386
:100DC000000290930102A0930202B093030284E117
:100DD00091E09093FD018093FC0185EC90E090936D
:100DE00009028093080284EC90E090930B028093B8
:100DF0000A0280EC90E090930D0280930C0281EC4B
:100E000090E090930F0280930E0282EC90E090931A
:100E100011028093100286EC90E09093130280936D
:100E200012021092150210921602109217021092DE
:100E300018020895CF92DF92EF92FF920F931F93C3
:100E4000CF93DF937C016A01EB0100E010E00C1509
:100E50001D0571F06991D701ED91FC910190F08130
:100E6000E02DC7010995892B19F00F5F1F4FEFCFB8
:100E7000C801DF91CF911F910F91FF90EF90DF900C
:100E8000CF9008956115710581F0DB010D90002070
:100E9000E9F7AD0141505109461B570BDC01ED91BB
:100EA000FC910280F381E02D099480E090E00895A8
:100EB00060E271E00C9442078F929F92AF92BF92D2
:100EC000CF92DF92EF92FF920F931F93CF93DF9316
:100ED000CDB7DEB7A1970FB6F894DEBF0FBECDBF7A
:100EE0007C01C42EE52FCB01D22E19A221E02D15B5
:100EF00010F02AE0D22E8E010F5D1F4F8D2C912C09
:100F0000A12CB12C6C2D7E2FA50194010E94EA0723
:100F10008C2DD29E80191124015011098A3014F4AD
:100F2000805D01C0895CF801808321153105410590
:100F3000510521F0C22EE32FCA01E4CFB801C70149
:100F40000E944207A1960FB6F894DEBF0FBECDBF38
:100F5000DF91CF911F910F91FF90EF90DF90CF9095
:100F6000BF90AF909F908F9008952115310541F467
:100F7000DC01ED91FC910190F081E02D642F09944A
:100F80000C945C070F931F93CF93DF93EC019A01AE
:100F9000462F50E060E070E00E94B5078C01CE0162
:100FA0000E945807800F911FDF91CF911F910F91E1
:100FB000089508950E9496040E94D9070E94830014
:100FC000CDE5D5E00E9490002097E1F30E945D05F9
:100FD000F9CF0895A1E21A2EAA1BBB1BFD010DC07B
:100FE000AA1FBB1FEE1FFF1FA217B307E407F507D9
:100FF00020F0A21BB30BE40BF50B661F771F881FB5
:10100000991F1A9469F760957095809590959B014A
:10101000AC01BD01CF010895EE0FFF1F0590F491C3
:08102000E02D0994F894FFCFC4
:10102800000000001B01EE00C300CB00DE00ED0055
:1010380000000000AE051A07300549053B058C0580
:101048000D0A006E616E00696E66006F7666002E8E
:02105800000096
:107E0000112484B714BE81FFF0D085E080938100F7
:107E100082E08093C00088E18093C10086E0809377
:107E2000C20080E18093C4008EE0C9D0259A86E02C
:107E300020E33CEF91E0309385002093840096BBD3
:107E4000B09BFECF1D9AA8958150A9F7CC24DD24C4
:107E500088248394B5E0AB2EA1E19A2EF3E0BF2EE7
:107E6000A2D0813461F49FD0082FAFD0023811F036
:107E7000013811F484E001C083E08DD089C08234E0
:107E800011F484E103C0853419F485E0A6D080C0E4
:107E9000853579F488D0E82EFF2485D0082F10E0AE
:107EA000102F00270E291F29000F111F8ED06801E7
:107EB0006FC0863521F484E090D080E0DECF843638
:107EC00009F040C070D06FD0082F6DD080E0C81688
:107ED00080E7D80618F4F601B7BEE895C0E0D1E017
:107EE00062D089930C17E1F7F0E0CF16F0E7DF06D8
:107EF00018F0F601B7BEE89568D007B600FCFDCFD4
:107F0000A601A0E0B1E02C9130E011968C91119780
:107F100090E0982F8827822B932B1296FA010C0160
:107F200087BEE89511244E5F5F4FF1E0A038BF0790
:107F300051F7F601A7BEE89507B600FCFDCF97BE46
:107F4000E89526C08437B1F42ED02DD0F82E2BD052
:107F50003CD0F601EF2C8F010F5F1F4F84911BD097
:107F6000EA94F801C1F70894C11CD11CFA94CF0C13
:107F7000D11C0EC0853739F428D08EE10CD085E9AC
:107F80000AD08FE07ACF813511F488E018D01DD067
:107F900080E101D065CF982F8091C00085FFFCCF94
:107FA0009093C60008958091C00087FFFCCF809118
:107FB000C00084FD01C0A8958091C6000895E0E648
:107FC000F0E098E1908380830895EDDF803219F02E
:107FD00088E0F5DFFFCF84E1DECF1F93182FE3DFCA
:107FE0001150E9F7F2DF1F91089580E0E8DFEE27F6
:047FF000FF270994CA
:027FFE00040479
:0400000300007E007B
:00000001FF
